:100000000C942A000C9447000C9447000C94470071
:100010000C9447000C9447000C9447000C94470044
:100020000C9447000C9447000C9408080C9447006B
:100030000C9447000C9447000C9447000C94470024
:100040000C9480030C9447000C9447000C944700D8
:100050000C94470011241FBECFE5D8E0DEBFCDBF12
:1000600011E0A0E6B0E0ECE5F5E102C005900D92EC
:10007000A031B107D9F721E0A0E1B1E001C01D92A4
:10008000AA33B207E1F70E944A030C94AC0A0C941D
:100090000000389839983A983B983C983E983F9899
:1000A0003D98309831983298339A379A8FB7806854
:1000B0008FBF369A0895813041F028F0823039F0B0
:1000C000833039F008956ABB089567BB089564BB17
:1000D000089561BB0895813041F028F0823039F0F5
:1000E000833039F008956BBB089568BB089565BBF4
:1000F000089562BB0895813011F130F08230D1F162
:10010000833009F452C00895413059F42AB381E094
:1001100090E002C0880F991F6A95E2F7822B8ABB94
:10012000089541115CC02AB381E090E002C0880FBD
:10013000991F6A95E2F7809582238ABB0895413022
:1001400059F427B381E090E002C0880F991F6A95A7
:10015000E2F7822B87BB0895411141C027B381E0AC
:1001600090E002C0880F991F6A95E2F7809582237C
:1001700087BB0895413059F424B381E090E002C078
:10018000880F991F6A95E2F7822B84BB089541116D
:1001900026C024B381E090E002C0880F991F6A95C1
:1001A000E2F78095822384BB0895413059F421B34E
:1001B00081E090E002C0880F991F6A95E2F7822BD8
:1001C00081BB089541110BC021B381E090E002C0D2
:1001D000880F991F6A95E2F78095822381BB089565
:1001E000813011F130F08230D1F1833009F452C006
:1001F0000895413059F42BB381E090E002C0880F9C
:10020000991F6A95E2F7822B8BBB089541115CC060
:100210002BB381E090E002C0880F991F6A95E2F746
:10022000809582238BBB0895413059F428B381E037
:1002300090E002C0880F991F6A95E2F7822B88BB75
:100240000895411141C028B381E090E002C0880FB9
:10025000991F6A95E2F78095822388BB0895413003
:1002600059F425B381E090E002C0880F991F6A9588
:10027000E2F7822B85BB0895411126C025B381E0AA
:1002800090E002C0880F991F6A95E2F7809582235B
:1002900085BB0895413059F422B381E090E002C05B
:1002A000880F991F6A95E2F7822B82BB089541114E
:1002B0000BC022B381E090E002C0880F991F6A95BD
:1002C000E2F78095822382BB0895813079F028F08F
:1002D0008230A9F08330E1F024C089B390E002C0FD
:1002E000959587956A95E2F78170089586B390E0B9
:1002F00002C0959587956A95E2F78170089583B35A
:1003000090E002C0959587956A95E2F7817008950F
:1003100080B390E002C0959587956A95E2F7817069
:10032000089580E0089540E063E081E00E947B0052
:1003300040E062E081E00E947B0040E061E081E01B
:100340000E947B0040E060E081E00E947B0041E091
:1003500064E081E00E947B0041E065E081E00E9472
:100360007B0041E066E081E00E947B0041E067E0C5
:1003700081E00E947B0041E063E081E00E94F000A8
:1003800041E062E081E00E94F00041E061E081E054
:100390000E94F00041E060E081E00E94F0000895DA
:1003A0000F931F93CF93DF93CDB7DEB728970FB688
:1003B000F894DEBF0FBECDBF182F84E0898385E09F
:1003C0008A8386E08B8387E08C8383E08D8382E061
:1003D0008E8381E08F83188641E064E00E94F00004
:1003E00041E065E081E00E94F00041E066E081E0EC
:1003F0000E94F00041E067E081E00E94F000812F60
:100400008370FE01E80FF11D40E0618181E00E94F0
:10041000F000812F86958695FE01E80FF11D05817C
:10042000602F81E00E946501811118C081EE94E087
:100430000197F1F700C00000602F81E00E94650184
:10044000811115C0E12FF0E0DF01A05FBE4F8C915C
:1004500081110FC0FD0181E080830EC0813059F40D
:10046000E12FF0E0E05FFE4F108280E005C080E009
:1004700003C080E001C080E028960FB6F894DEBF8C
:100480000FBECDBFDF91CF911F910F9108951092B4
:10049000220180E00E94D001813019F48091220174
:1004A0000895809122018F5F80932201853090F31F
:1004B00084E00895CF93C82F41E065E082E00E9478
:1004C000F00040E066E082E00E94F0006C2F83E0E4
:1004D0000E946B0041E067E082E00E94F0008DEE38
:1004E00092E00197F1F700C0000040E067E082E091
:1004F0000E94F00089EF90E00197F1F700C0000042
:10050000CF910895CF93C82F40E065E082E00E942C
:10051000F00040E066E082E00E94F0006C2F83E093
:100520000E946B0041E067E082E00E94F00089EFEA
:1005300090E00197F1F700C0000040E067E082E042
:100540000E94F00083EC99E00197F1F700C00000F1
:10055000CF9108956FEF83E00E945B0041E065E07A
:1005600082E00E947B0041E066E082E00E947B0026
:1005700041E067E082E00E947B0083ED90E3019719
:10058000F1F700C0000088E30E94820289EF90E04A
:100590000197F1F700C000008CE00E94820283EF17
:1005A00091E00197F1F700C0000081E00E94820213
:1005B00008950F931F93CF93FC018081882359F0F6
:1005C0008F01C0E00E945A02CF5FF801EC0FF11DCD
:1005D00080818111F7CFCF911F910F9108958F9254
:1005E0009F92AF92BF92EF92FF921F93CF93DF93B0
:1005F000CDB7DEB72A970FB6F894DEBF0FBECDBFDA
:100600001FEF0F2EFAE08F2E912CA12CB12CF02D84
:100610001F5FEE24E394F12CEC0EFD1EE10EF11CA5
:1006200017FDFA94A50194010E94730A605DF70119
:100630006083622F732F842F952F611571058105BB
:10064000910531F711236CF0E1E0F0E0EC0FFD1FB4
:10065000E10FF11D17FDFA9580810E945A02115099
:100660009AF72A960FB6F894DEBF0FBECDBFDF9182
:10067000CF911F91FF90EF90BF90AF909F908F9080
:10068000089590E4899F600D1124862F80580E9460
:10069000820208950E94A0030E949301C4E0C43026
:1006A00019F40E944702C82FC13039F128F0C23036
:1006B000F1F0C330F9F0F3CF40E050E064E070E0D7
:1006C00080E090E00E947B0041E050E065E070E057
:1006D00080E090E00E947B0041E050E065E070E047
:1006E00080E090E00E94F0000E94CA03D8CF0E94F0
:1006F0004604D5CF0E942D05D2CF0E943006CFCF21
:100700001F920F920FB60F9211248F939F93AF9366
:10071000BF9384B195B19370A0E0B0E080932B01BA
:1007200090932C01A0932D01B0932E01369ABF9186
:10073000AF919F918F910F900FBE0F901F901895C2
:100740000E9449000E94AA0241E060E082E00E940B
:100750007B0041E061E082E00E947B0041E062E0DA
:1007600082E00E947B0041E063E082E00E947B0027
:1007700041E064E082E00E947B0080E690E00E941D
:10078000D90260E081E00E9441038FE690E00E9480
:10079000D9020895CF92DF92EF92FF9260912B01E0
:1007A00070912C0180912D0190912E010E9456098B
:1007B00023E333E34BE950E40E94E40920E030E610
:1007C0004AE656E40E94E40920E030E44CE955E4AE
:1007D0000E94AE086B017C0120E030E040E85AE363
:1007E0000E94E4090E942709609333017093340149
:1007F000809335019093360120E030E048EC52E4DC
:10080000C701B6010E94E40920E030E040E85AE365
:100810000E94E4090E94270924E630E040E050E00D
:100820000E94510A6093370160E080E00E9441031A
:1008300060913301709134018091350190913601BE
:100840000E94EF0280E890E00E94D9028091370177
:100850008A3020F482E890E00E94D902609137014A
:1008600070E080E090E00E94EF028FEC90E00E9448
:10087000D90260E081E00E94410384E890E00E9498
:10088000D902FF90EF90DF90CF9008958F929F92C2
:10089000AF92BF92CF92DF92EF92FF920F931F938E
:1008A000CF93DF9360912B0170912C0180912D01EA
:1008B00090912E010E94560923E333E34BE950E463
:1008C0000E94E40920E030E64AE656E40E94E4098A
:1008D00020E030E44CE955E40E94AE084B015C0195
:1008E00020E030E040E85AE30E94E4090E94270932
:1008F00060933301709334018093350190933601F6
:1009000028E93AE340E050E00E94510A022F132FF9
:10091000D42FC52FC22ED32EE42EF52E20E030E0AA
:1009200048EC52E4C501B4010E94E40920E030E043
:1009300040E85AE30E94E40920E030E64AE656E443
:100940000E94AE080E94270920E137E240E050E013
:100950000E94510A6093370160E080E00E944103E9
:1009600082E0C816D104E104F10430F1602F712F48
:100970008D2F9C2F0E94EF0280E890E00E94D90208
:10098000809137018A3020F482E890E00E94D902F9
:100990006091370170E080E090E00E94EF028FEC00
:1009A00090E00E94D90260E081E00E94410385E965
:1009B00090E00E94D90244C060912B0170912C01FB
:1009C00080912D0190912E010E94560923E333E37B
:1009D0004BE950E40E94E40920E030E64AE656E4A0
:1009E0000E94E40920E030E44CE955E40E94AE089E
:1009F00020E030E048EC52E40E94E40920E030E0DE
:100A000040E85AE30E94E40920E030E44CE156E477
:100A10000E94E40920E030E64AE656E40E94AE086F
:100A20000E9420090E94EF028CEC90E00E94D90203
:100A300060E081E00E94410385EA90E00E94D902D3
:100A4000DF91CF911F910F91FF90EF90DF90CF90AA
:100A5000BF90AF909F908F90089580912101811158
:100A600032C041E064E00E947B0041E065E080E04C
:100A70000E947B0040E065E080E00E94F0008091F1
:100A80002101811120C080912B0190912C01A09116
:100A90002D01B0912E01892B8A2B8B2BA1F481E0A3
:100AA0008093210140E064E080E00E947B0041E00F
:100AB00065E080E00E947B0041E065E080E00E940C
:100AC000F0000E941F0860E080E00E9441038091D6
:100AD0002101882391F18091200181112EC0809104
:100AE0002B0190912C01A0912D01B0912E018638FF
:100AF0009240A105B10508F181E0809320010E9498
:100B00003A089B01AC01A8EEB3E00E94920A20E1F2
:100B100037E240E050E00E94510ACA01B9010E9448
:100B2000EF028CEC90E00E94D90260E081E00E942C
:100B3000410386EB90E00E94D9020895823009F4C7
:100B400041C028F4882351F0813011F10895833099
:100B500009F452C0843009F469C0089541E060E0AE
:100B600082E00E94F00040E061E082E00E94F0003C
:100B700040E062E082E00E94F00040E063E082E05A
:100B80000E94F00040E064E082E00E94F0000895DE
:100B900040E060E082E00E94F00041E061E082E03D
:100BA0000E94F00040E062E082E00E94F00040E03D
:100BB00063E082E00E94F00040E064E082E00E9496
:100BC000F000089540E060E082E00E94F00040E024
:100BD00061E082E00E94F00041E062E082E00E9479
:100BE000F00040E063E082E00E94F00040E064E05A
:100BF00082E00E94F000089540E060E082E00E9400
:100C0000F00040E061E082E00E94F00040E062E03D
:100C100082E00E94F00041E063E082E00E94F00088
:100C200040E064E082E00E94F000089540E060E06F
:100C300082E00E94F00040E061E082E00E94F0006B
:100C400040E062E082E00E94F00040E063E082E089
:100C50000E94F00041E064E082E00E94F00008950C
:100C60008F929F92AF92BF92CF92DF92EF92FF92BC
:100C700084E090E00E949E0580912B0190912C01D0
:100C8000A0912D01B0912E0184369105A105B105E9
:100C900068F080E492E4AFE0B0E0809327019093A5
:100CA0002801A0932901B0932A0177C083E090E046
:100CB0000E949E0580912B0190912C01A0912D0105
:100CC000B0912E0184369105A105B10568F080EA46
:100CD00096E8A1E0B0E08093270190932801A093CB
:100CE0002901B0932A0159C082E090E00E949E053C
:100CF00080912B0190912C01A0912D01B0912E019A
:100D000084369105A105B10568F080E197E2A0E085
:100D1000B0E08093270190932801A0932901B0931C
:100D20002A013BC081E090E00E949E0580912B014A
:100D300090912C01A0912D01B0912E018436910546
:100D4000A105B10568F088EE93E0A0E0B0E08093E3
:100D5000270190932801A0932901B0932A011DC077
:100D600080E090E00E949E0580912B0190912C01E3
:100D7000A0912D01B0912E0184369105A105B105F8
:100D800060F084E690E0A0E0B0E0809327019093CB
:100D90002801A0932901B0932A0160912B01709141
:100DA0002C0180912D0190912E01663B23E072076A
:100DB0008105910548F010922F0110923001109298
:100DC00031011092320138C00E94560929E939E9EF
:100DD00041EB50E40E94E40920E030E040E85AE3AF
:100DE0000E94E4096B017C01609127017091280148
:100DF0008091290190912A010E945609A70196012C
:100E00000E94E4094B015C01A701960163E373E3CF
:100E10008BE990E40E9441089B01AC01C501B4013B
:100E20000E94AE080E94270960932F017093300141
:100E3000809331019093320160E080E00E94410391
:100E400060912F01709130018091310190913201B8
:100E5000683E23E072078105910578F40E94EF0255
:100E600087EC90E00E94D90260E081E00E9441039B
:100E70008CED90E00E94D902C2C0603422E4720777
:100E80002FE08207910508F05DC00F2EF8EECF2EFF
:100E9000F3E0DF2EE12CF12CF02DA70196010E944A
:100EA000510ACA01B9010E94EF0280E890E00E9455
:100EB000D90260912F0170913001809131019091A0
:100EC0003201A70196010E94510A6A30710581051D
:100ED000910520F482E890E00E94D90260912F01F0
:100EE00070913001809131019091320128EE33E010
:100EF00040E050E00E94510A643671058105910579
:100F000020F482E890E00E94D90260912F01709154
:100F10003001809131019091320128EE33E040E0C0
:100F200050E00E94510A0E94EF028FEC90E00E9474
:100F3000D90260E081E00E9441038DEE90E00E94C2
:100F4000D9025DC00F2EF0E4CF2EF2E4DF2EFFE0D9
:100F5000EF2EF12CF02DA70196010E94510ACA0133
:100F6000B9010E94EF0280E890E00E94D9026091EE
:100F70002F01709130018091310190913201A701D0
:100F800096010E94510A6A3071058105910520F48D
:100F900082E890E00E94D90260912F0170913001A7
:100FA000809131019091320120E432E44FE050E031
:100FB0000E94510A643671058105910520F482E88A
:100FC00090E00E94D90260912F01709130018091D0
:100FD00031019091320120E432E44FE050E00E9470
:100FE000510A0E94EF028FEC90E00E94D90260E06B
:100FF00081E00E9441038EEF90E00E94D902FF90B1
:10100000EF90DF90CF90BF90AF909F908F9008951A
:101010001F920F920FB60F9211248F939F9380917E
:1010200038019091390101969093390180933801EC
:101030009F918F910F900FBE0F901F90189583B7BF
:10104000806883BF83B78F7B83BF83B7886083BF8C
:1010500083B7816083BF83B7826083BF83B78B7F91
:1010600083BF89B7826089BF8CE78CBF8FB78068E8
:101070008FBF0895609138017091390180E090E050
:1010800008955058BB27AA270E9459080C94AA0912
:101090000E949C0938F00E94A30920F039F49F3F78
:1010A00019F426F40C9499090EF4E095E7FB0C94DE
:1010B0009309E92F0E94BB0958F3BA176207730717
:1010C0008407950720F079F4A6F50C94DD090EF459
:1010D000E0950B2EBA2FA02D0B01B90190010C0148
:1010E000CA01A0011124FF27591B99F0593F50F460
:1010F000503E68F11A16F040A22F232F342F4427B8
:10110000585FF3CF469537952795A795F0405395AF
:10111000C9F77EF41F16BA0B620B730B840BBAF07F
:101120009150A1F0FF0FBB1F661F771F881FC2F7EA
:101130000EC0BA0F621F731F841F48F487957795FE
:101140006795B795F7959E3F08F0B0CF9395880FB8
:1011500008F09927EE0F9795879508950E94C20889
:101160000C94AA090E94A30958F00E949C0940F01F
:1011700029F45F3F29F00C94930951110C94DE0976
:101180000C9499090E94BB0968F39923B1F3552384
:1011900091F3951B550BBB27AA276217730784078A
:1011A00038F09F5F5F4F220F331F441FAA1FA9F320
:1011B00035D00E2E3AF0E0E832D091505040E6950E
:1011C000001CCAF72BD0FE2F29D0660F771F881F6F
:1011D000BB1F261737074807AB07B0E809F0BB0B62
:1011E000802DBF01FF2793585F4F3AF09E3F510576
:1011F00078F00C9493090C94DE095F3FE4F3983E79
:10120000D4F3869577956795B795F7959F5FC9F75E
:10121000880F911D9695879597F90895E1E0660FDF
:10122000771F881FBB1F621773078407BA0720F058
:10123000621B730B840BBA0BEE1F88F7E0950895C1
:101240000E9427096894B1110C94DE0908950E9448
:10125000C30988F09F5798F0B92F9927B751B0F07C
:10126000E1F0660F771F881F991F1AF0BA95C9F72A
:1012700014C0B13091F00E94DD09B1E008950C94E2
:10128000DD09672F782F8827B85F39F0B93FCCF395
:10129000869577956795B395D9F73EF490958095A7
:1012A000709561957F4F8F4F9F4F0895E89409C0C7
:1012B00097FB3EF490958095709561957F4F8F4F89
:1012C0009F4F9923A9F0F92F96E9BB279395F6959F
:1012D000879577956795B795F111F8CFFAF4BB0F1D
:1012E00011F460FF1BC06F5F7F4F8F4F9F4F16C081
:1012F000882311F096E911C0772321F09EE8872F0B
:10130000762F05C0662371F096E8862F70E060E0C6
:101310002AF09A95660F771F881FDAF7880F96953F
:10132000879597F9089597F99F6780E870E060E0E6
:1013300008959FEF80EC089500240A94161617066E
:1013400018060906089500240A94121613061406B6
:1013500005060895092E0394000C11F4882352F019
:10136000BB0F40F4BF2B11F460FF04C06F5F7F4FD1
:101370008F4F9F4F089557FD9058440F551F59F0B8
:101380005F3F71F04795880F97FB991F61F09F3F72
:1013900079F087950895121613061406551FF2CF9B
:1013A0004695F1DF08C0161617061806991FF1CFEB
:1013B00086957105610508940895E894BB27662712
:1013C0007727CB0197F908950E94F7090C94AA0991
:1013D0000E949C0938F00E94A30920F0952311F087
:1013E0000C9493090C94990911240C94DE090E9421
:1013F000BB0970F3959FC1F3950F50E0551F629F95
:10140000F001729FBB27F00DB11D639FAA27F00D5D
:10141000B11DAA1F649F6627B00DA11D661F829F84
:101420002227B00DA11D621F739FB00DA11D621F69
:10143000839FA00D611D221F749F3327A00D611D86
:10144000231F849F600D211D822F762F6A2F112468
:101450009F5750409AF0F1F088234AF0EE0FFF1F9B
:10146000BB1F661F771F881F91505040A9F79E3FF2
:10147000510580F00C9493090C94DE095F3FE4F36E
:10148000983ED4F3869577956795B795F795E79548
:101490009F5FC1F7FE2B880F911D9695879597F951
:1014A0000895A1E21A2EAA1BBB1BFD010DC0AA1FA5
:1014B000BB1FEE1FFF1FA217B307E407F50720F0BD
:1014C000A21BB30BE40BF50B661F771F881F991F38
:1014D0001A9469F760957095809590959B01AC0181
:1014E000BD01CF010895052E97FB1EF400940E94C4
:1014F0008A0A57FD07D00E94510A07FC03D04EF418
:101500000C948A0A50954095309521953F4F4F4F46
:101510005F4F089590958095709561957F4F8F4F9F
:101520009F4F08950E949D0AA59F900DB49F900D16
:10153000A49F800D911D11240895A29FB001B39F17
:10154000C001A39F700D811D1124911DB29F700DCC
:0C155000811D1124911D0895F894FFCF17
:10155C00312E44435620202020322E4F686D00330C
:10156C002E44434120202020342E66617261640099
:10157C002E00300020202020202020202020202081
:10158C00566F6C740020202020202020202020204A
:10159C0020416D700020202020202020204D6963E8
:1015AC00726F416D70002020202020204D696372E5
:1015BC006F466172616400202020202020202020B2
:1015CC00202020202020202020202000202020202F
:1015DC002020202020202020204F686D002020205B
:1015EC0020202020202020204B204F686D00202020
:1015FC002020202020202020204D204F686D00002E
:00000001FF
